:100000000C943F000C945C000C945C000C945C001D
:100010000C945C000C945C000C945C000C945C00F0
:100020000C945C000C945C000C945C000C945C00E0
:100030000C945C000C945C000C945C000C944302E7
:100040000C945C000C945C000C945C000C945C00C0
:100050000C945C000C945C000C945C000C945C00B0
:100060000C949E020C944F030C945C000C945C0066
:100070000C945C000C945C000C945C00BF05112493
:100080001FBECFEFCDBFDFE3DEBF28E3A0E0B8E3C4
:1000900001C01D92AB37B207E1F710E0CFE3D0E02B
:1000A00004C02197FE010E94DB05CE33D107C9F7BA
:1000B0000E94FF030C94F0050C9400009091010243
:1000C00094FF1FC096E09093060492E090937A38D4
:1000D00010927938109278381092773810927638DA
:1000E0001092753810927438880F682B60931C0832
:1000F00010921E0881EE8093190881E08093130806
:10010000089593E090932604E0CF80E00895E09175
:100110006338F0916438309759F03091623820910B
:100120006138321728F01092623880936138099450
:1001300008958FB7F8942091033830910438409196
:1001400005385091063898E09093840A90918E0A71
:1001500091FFFCCFE091A20AF091A30A90918D0A41
:1001600090FF08C0BF016627672B21F42E5F3F4F29
:100170004F4F5F4F8FBFACEFB3E00E94D005EE0F43
:10018000FF1F6E0F7F1F811D911D0895E0E1F8E0B4
:1001900091859066918792E090937A388093763833
:1001A00010927738089581E08093773810927638EE
:1001B00090911B0891FF10C010927838E091183888
:1001C000F091193809958093003885E080937A384A
:1001D00083E080931A0808951092793880937438D8
:1001E00086E0F4CFE0E1F8E01382168281E08583B7
:1001F00014861186168610927A3808950895E09133
:10020000623880916138E81730F4F0E0E15EF74C35
:10021000808190E008958FEF9FEF0895909162386C
:10022000809161382FEF3FEF981748F4E92FF0E005
:10023000E15EF74C208130E09F5F90936238C90106
:1002400008958091613890916238891B990B0895C7
:10025000CF92DF92EF92FF920F931F93CF93DF9392
:100260007C018A01EB016B01C40ED51ECC15DD05A6
:1002700051F06991D701ED91FC910190F081E02D51
:10028000C7010995F3CFC801DF91CF911F910F915D
:10029000FF90EF90DF90CF90089520915F3820324B
:1002A00040F021E030E0FC012283338390E080E0E5
:1002B000089580916038E82FF0E0E15CF74C6083AE
:1002C0008F5F8093603880935F3881E090E008957D
:1002D000CF93DF938091613890916238891B990B9D
:1002E00004972CF086E698E30E940E01F3CF86E691
:1002F00098E30E940E01D82F86E698E30E940E0133
:10030000C82F86E698E30E940E01D1110AC0C111E0
:1003100005C08E3B19F481E080937238DF91CF9154
:100320000895D03641F4C111F9CF8E34B9F781E088
:1003300080936538F3CFD23689F7C111EFCF8C3473
:1003400069F7F5CF90E0FC01E85EF34720812F3F8D
:1003500009F469C0FC01E45FF347E08130E2E39F08
:10036000F0011124FC5F611123C026833081232317
:1003700099F4DC01A050B4472C913097D9F02F3F6D
:10038000C9F07096E20FF11D3FB7F894208161111A
:1003900014C0277F20833FBFFC01EC50F44720812D
:1003A000222309F440C0203151F02038D1F10895C2
:1003B0002583DCCFF0E0E0E0E7CF2860EBCF805092
:1003C0009447FC0180818330C8F0835090E0FC01A9
:1003D000EE0FFF1FE75DF54F10824091010A049672
:1003E00021E030E0B90102C0660F771F8A95E2F77D
:1003F000CB01809584238093010A0895E82FF0E0D3
:10040000EE0FFF1FE85DF54F10824091010A21E0D9
:1004100030E0F90102C0EE0FFF1F8A95E2F7CF012D
:10042000E8CF1092A0060895CF93DF9390E0FC01EF
:10043000E85EF34720812F3F61F0FC01E45FF34762
:10044000E08130E2E39FF0011124FC5F613021F490
:100450002183DF91CF91089580509447EC01A881CA
:10046000AF3F71F0CF014096A80FB92FB11D9FB7D4
:10047000F89422838C91877F8C9326839FBFE9CF4A
:10048000B0E0A0E0F4CF1F920F920FB60F921124AC
:100490002F933F934F935F936F938F939F93AF935C
:1004A000BF938091073890910838A0910938B09196
:1004B0000A3840910138509102389A012C5E3F4F22
:1004C000283E63E0360798F50196A11DB11D2093E3
:1004D0000138309302388093073890930838A093FE
:1004E0000938B0930A388091033890910438A0916C
:1004F0000538B09106380196A11DB11D80930338CF
:1005000090930438A0930538B093063881E0809327
:100510008D0ABF91AF919F918F916F915F914F9194
:100520003F912F910F900FBE0F901F9018959A0139
:10053000245D33400296A11DB11DC9CF1F920F92B9
:100540000FB60F9211242F933F934F935F936F93A6
:100550007F938F939F93AF93BF93CF93EF93FF932B
:10056000C0911B08C2FF0AC01092793810927838E7
:100570001092003884E00E94C60014C0C6FF2FC04D
:1005800080917438813051F480917938E0911D3830
:10059000F0911E3890E0099510927438C0FF14C095
:1005A0000E94D300FF91EF91CF91BF91AF919F91A6
:1005B0008F917F916F915F914F913F912F910F900C
:1005C0000FBE0F901F90189580E480931B0881E068
:1005D0000E94C60080911B0885FFE4CFE1CFC7FFD2
:1005E0005CC0C3FF08C0109279381092783810921E
:1005F000003883E0C0CF8091190880668093190885
:1006000080911B0881FF2CC080917838882349F0A5
:1006100080911B0884FF05C082E080931A0881E066
:10062000AACF90917838809100389817A8F4E0917B
:1006300078388091163890911738E80FF92FF11D0E
:10064000808180931D08809178388F5F80937838FF
:1006500083E080931A08A6CF82E080931A088BCF9C
:100660009091793880911A38981790F480911D08EC
:10067000E091793820911B3830911C38E20FF32F2C
:10068000F11D8083809179388F5F80937938E0CF36
:1006900086E080931A0882E06ECF85E06CCF1F92CF
:1006A0000F920FB60F9211242F938F939F93EF9376
:1006B000FF9380911508982F9C70C1F080911508C8
:1006C00094E082FF93E0909313388093150881E0C3
:1006D00080937A3810921438FF91EF919F918F9107
:1006E0002F910F900FBE0F901F90189586FF4CC052
:1006F0002091103890910F388091150884FF10C018
:1007000080910C38882351F083E08093140885E0B1
:10071000809313381092143881E031C081E0F5CF16
:1007200080910E38821790F4E0910E388091113844
:1007300090911238E80FF92FF11D808180931808ED
:1007400080910E388F5F80930E38C6CF80910D3820
:10075000891748F484E080937A3880910B3881605F
:1007600080931708B9CF80910C38882359F083E023
:100770008093140881E0809313381092143880938A
:100780007A38AACF81E0F4CF87FF37C090910D3837
:1007900080910F389817A8F480911808E0910D38CF
:1007A000F0E0808380910D388F5F80930D389091B9
:1007B0000F3880910D388917C0F482E080931408B7
:1007C0008BCF80910C38882371F087E080931408D8
:1007D00082E0809313381092143881E080937A3845
:1007E00010920F3879CF85E0F1CF80910C388823B3
:1007F00011F087E0BDCF85E0BBCF86E089CF81E0F7
:1008000098ED94BF8093610092E5909302069EE07C
:100810009093050690E290930306909100069160F4
:10082000909300068093030A9EEF9093260A90937C
:10083000270A9BE09093000A2DEF31E02093AE0A47
:100840003093AF0A80938C0A1092810A80E88093DB
:10085000820A81E18093800A789461E088E00E94B6
:10086000140260E088E00E94A20161E082E00E9440
:10087000140261E082E00E94A2011092623810929C
:1008800061381092603810925F3880917A38811107
:1008900004C061E08DE40E945E0085E890E08093F2
:1008A0001838909319388FE398E380931638909313
:1008B000173887E890E080931D3890931E388FE1B9
:1008C00098E380931B3890931C3880E280931A3809
:1008D00088E691E0809363389093643835E8632E1E
:1008E00030E0732ECFE3D8E307E810E04FE1E42EC9
:1008F00048E3F42E6C0153E0552E82E8482E94E034
:10090000392E21EC222E809173388111CAC080913A
:100910007238882309F4B4C0109272388091280488
:1009200080FFFCCF0E94F2000E9499004B015C0105
:1009300020E1820E27E2921EA11CB11C80E18816E4
:1009400087E29806A104B10438F40E949900861643
:100950009706A806B906C8F30E949900681579059C
:100960008A059B05C8F31092623810926138109284
:10097000603810925F3880917A38811119C0809167
:10098000010284FFA8C086E08093060481E0809382
:100990007A3810920D3810920E3810921438109246
:1009A0001338209213089FE190931608809315083E
:1009B00081E4809315386FEE86E698E30E944D013E
:1009C00060EC86E698E30E944D0160E086E698E3DD
:1009D0000E944D0161E086E698E30E944D0166E0C9
:1009E00086E698E30E944D0160E086E698E30E9467
:1009F0004D0160E086E698E30E944D0169E086E6DD
:100A000098E30E944D0160E086E698E30E944D0164
:100A100069E086E698E30E944D0160E086E698E38F
:100A20000E944D0166EB86E698E30E944D0180919D
:100A30007A38813009F077C090911438911173C0E1
:100A400090915F388093143810921338C093113806
:100A5000D09312389093103810920F3810920E38AD
:100A600010920D3880930C3840920B3880911038DA
:100A70008823A9F150927A3880910B388E7F38C044
:100A80002FB7F8948091073890910838A0910938D1
:100A9000B0910A382FBF8B3F9105A105B10508F031
:100AA0003BCF80916538882309F42DCF10926538AB
:100AB0000E94F20060E086E00E94140260E087E09D
:100AC0000E94140261E088E00E94A20160E082E0DE
:100AD0000E94A20112CF23E02093260457CF8091D9
:100AE0000F38882341F030927A3880910B3881603A
:100AF0008093170809C080911038811105C080913A
:100B00000F38882309F4B6CF809113388823E1F396
:100B100080911338833009F4A9CF80910F3888234E
:100B200059F180910D381092603810925F380E9410
:100B3000F20081E08093733880917A38811104C08B
:100B400061E08DE40E945E0060921838709219385E
:100B5000C0931638D093173800931D3810931E3861
:100B6000E0921B38F0921C3820E220931A38C09291
:100B70006338D092643895CF80911338D4CFE6E6AD
:100B8000F8E31282138288EE93E0A0E0B0E0848361
:100B90009583A683B78388EE9BE88083918308952D
:100BA0000E94E105A59F900DB49F900DA49F800D1C
:100BB000911D11240895EE0FFF1F0590F491E02D73
:100BC0000994A29FB001B39FC001A39F700D811D26
:100BD0001124911DB29F700D811D1124911D089546
:040BE000F894FFCFB7
:100BE400000000004D01280121010E01FF00FE005C
:100BF40010108000001010100000100004050607FB
:100C040003020100010203000000000001010101D0
:100C140000000000102040800804020102040801C2
:00000001FF
