:100000000C943F000C945C000C945C000C945C001D
:100010000C945C000C945C000C945C000C945C00F0
:100020000C945C000C945C000C945C000C945C00E0
:100030000C945C000C945C000C945C000C941D020D
:100040000C945C000C945C000C945C000C945C00C0
:100050000C945C000C945C000C945C000C945C00B0
:100060000C9478020C9429030C945C000C945C00B2
:100070000C945C000C945C000C945C0094051124BE
:100080001FBECFEFCDBFDFE3DEBF29E3A0E0B8E3C3
:1000900001C01D92AA33B207E1F710E0CFE3D0E030
:1000A00004C02197FE010E94B005CE33D107C9F7E5
:1000B0000E94D9030C94C5050C94000092E0909323
:1000C00039391092383910923739109236391092E6
:1000D00035391092343910923339880F682BE0E1AA
:1000E000F8E06487168681EE818781E08383089536
:1000F00080E00895E0912339F0912439309759F048
:100100003091223920912139321728F0109222396A
:10011000809321390994089590E0FC01EE53F4474F
:1001200040814F3F09F446C0FC01E256F44720816C
:10013000222321F0203191F0203821F1FC01EA54F2
:10014000F447E08120E2E29FF0011124FC5F20816E
:100150002423E9F0611119C046830895FC01E65596
:10016000F4475081533008F05F5F7091010A21E03D
:1001700030E001C0220F5A95EAF7209527232093FB
:10018000010ADCCF1092A006D9CF45830895865589
:100190009447DC018C91309771F08F3F61F070963D
:1001A000E80FF11D9FB7F8948081611107C0877F28
:1001B00080839FBF0895F0E0E0E0F4CF8860F8CF3F
:1001C000CF93DF9390E0FC01EE53F44720812F3F63
:1001D00069F0FC01EA54F447A08130E2A39FD0010A
:1001E0001124BC5F613029F411962C93DF91CF91DB
:1001F000089586559447EC01E881EF3F81F0CD01E9
:100200004096E80FF92FF11D9FB7F89412962C93A2
:100210008081623039F4886080839FBFE7CFF0E04F
:10022000E0E0F2CF877FF8CF8FB7F89420910738BE
:10023000309108384091093850910A3898E09093ED
:10024000840A90918E0A91FFFCCFE091A20AF0916E
:10025000A30A90918D0A90FF08C0BF016627672B03
:1002600021F42E5F3F4F4F4F5F4F8FBFACEFB3E096
:100270000E94A505EE0FFF1F6E0F7F1F811D911DB0
:100280000895E0E1F8E091859066918792E090937F
:1002900039398093353910923639089581E0809349
:1002A00036391092353993E090931A0890911B08D3
:1002B00091FF0DC010923739E0911838F09119383C
:1002C00009958093003885E080933939089510921C
:1002D00038398093333986E0F7CFE0E1F8E01382D4
:1002E000168281E08583148611861686109239392C
:1002F00008950895E091223980912139E81730F46A
:10030000F0E0E15EF74C808190E008958FEF9FEF81
:10031000089590912239809121392FEF3FEF98175E
:1003200048F4E92FF0E0E15EF74C208130E09F5F78
:1003300090932239C90108958091213990912239F1
:10034000891B990B0895CF92DF92EF92FF920F9342
:100350001F93CF93DF937C018A01EB016B01C40EE5
:10036000D51ECC15DD0551F06991D701ED91FC91B9
:100370000190F081E02DC7010995F3CFC801DF910D
:10038000CF911F910F91FF90EF90DF90CF90089544
:1003900020911F3927FF08C021E030E0FC012283B3
:1003A000338390E080E0089580912039E82FF0E0D9
:1003B000E156F74C60838F5F8093203980931F391B
:1003C00081E090E00895CF93DF938091213990915F
:1003D0002239891B990B04972CF086E299E30E943D
:1003E0008901F3CF86E299E30E948901D82F86E242
:1003F00099E30E948901C82F86E299E30E9489014E
:10040000D1110AC0C11105C08E3B19F481E080935F
:100410003239DF91CF910895D03641F4C111F9CF2F
:100420008E34B9F781E080932539F3CFD23689F73E
:10043000C111EFCF8C3469F7F5CF1F920F920FB631
:100440000F9211242F933F934F935F936F938F934A
:100450009F93AF93BF938091033890910438A091FC
:100460000538B091063840910138509102389A0110
:100470002C5E3F4F283E63E0360798F50196A11D9C
:10048000B11D209301383093023880930338909344
:100490000438A0930538B0930638809107389091BE
:1004A0000838A0910938B0910A380196A11DB11DF4
:1004B0008093073890930838A0930938B0930A388E
:1004C00081E080938D0ABF91AF919F918F916F9141
:1004D0005F914F913F912F910F900FBE0F901F9002
:1004E00018959A01245D33400296A11DB11DC9CF14
:1004F0001F920F920FB60F9211242F933F934F9399
:100500005F936F937F938F939F93AF93BF93CF939B
:10051000EF93FF93C0911B08C2FF0AC010923839B5
:10052000109237391092003884E00E94410114C0C3
:10053000C6FF2FC080913339813051F48091383912
:10054000E0911D38F0911E3890E0099510923339F2
:10055000C0FF14C00E944E01FF91EF91CF91BF9157
:10056000AF919F918F917F916F915F914F913F914B
:100570002F910F900FBE0F901F90189580E48093DD
:100580001B0881E00E94410180911B0885FFE4CF98
:10059000E1CFC7FF5CC0C3FF08C01092383910928A
:1005A00037391092003883E0C0CF809119088066F7
:1005B0008093190880911B0881FF2CC080913739E6
:1005C000882349F080911B0884FF05C082E0809356
:1005D0001A0881E0AACF9091373980910038981796
:1005E000A8F4E09137398091163890911738E80FC8
:1005F000F92FF11D808180931D08809137398F5F1D
:100600008093373983E080931A08A6CF82E08093E5
:100610001A088BCF9091383980911A38981790F436
:1006200080911D08E091383920911B3830911C3899
:10063000E20FF32FF11D8083809138398F5F809313
:100640003839E0CF86E080931A0882E06ECF85E0EB
:100650006CCF1F920F920FB60F9211242F938F938E
:100660009F93EF93FF9380911508982F9C70C1F092
:100670008091150894E082FF93E090931338809363
:10068000150881E08093393910921438FF91EF9169
:100690009F918F912F910F900FBE0F901F901895E3
:1006A00086FF4CC02091103890910F38809115082A
:1006B00084FF10C080910C38882351F083E0809330
:1006C000140885E0809313381092143881E031C00B
:1006D00081E0F5CF80910E38821790F4E0910E38CA
:1006E0008091113890911238E80FF92FF11D808117
:1006F0008093180880910E388F5F80930E38C6CF94
:1007000080910D38891748F484E0809339398091BD
:100710000B38816080931708B9CF80910C388823FB
:1007200059F083E08093140881E08093133810928D
:10073000143880933939AACF81E0F4CF87FF37C0CE
:1007400090910D3880910F389817A8F4809118086F
:10075000E0910D38F0E0808380910D388F5F8093B9
:100760000D3890910F3880910D388917C0F482E0D0
:10077000809314088BCF80910C38882371F087E028
:100780008093140882E0809313381092143881E02B
:100790008093393910920F3879CF85E0F1CF80916D
:1007A0000C38882311F087E0BDCF85E0BBCF86E011
:1007B00089CF91E088ED84BF90936100809102061B
:1007C0008260809302068EE0809305068091000689
:1007D000816080930006809102068F7C8065809303
:1007E00002069093030A8EEF8093260A8093270ACD
:1007F00080E88093280A80932A0A80932C0A8093A9
:10080000290A80932B0A80932D0A2BE02093000A5B
:100810002DEF31E02093AE0A3093AF0A90938C0A0B
:100820001092810A8093820A81E18093800A7894F1
:1008300061E088E00E94E00060E088E00E948C00B7
:1008400061E082E00E94E00061E082E00E948C00B2
:1008500010922239109221391092203910921F39AA
:1008600080913939811104C061E08DE40E945E00FD
:1008700088E790E080931838909319388FE998E3CF
:1008800080931638909317388AE790E080931D384C
:1008900090931E388FE198E380931B3890931C3817
:1008A00080E880931A3883EE91E080932339909307
:1008B000243920E0422E20E0522E38E7632E30E02B
:1008C000732ECFE9D8E30AE710E04FE1E42E48E3C6
:1008D000F42E6C0183E0382E94E0292E8091323979
:1008E000882309F4FFC0109232398091280480FFD8
:1008F000FCCF0E946D010E9414014B015C0120E1BC
:10090000820E27E2921EA11CB11C80E1881687E2AC
:100910009806A104B10438F40E94140186169706C3
:10092000A806B906C8F30E941401681579058A055E
:100930009B05C8F310922239109221391092203968
:1009400010921F398091393981111BC062E086E015
:100950000E94E00062E087E00E94E00081E0809376
:10096000393910920D3810920E38109214381092B6
:10097000133891EC909313089FE19093160880939D
:10098000150821E4209315386FEE86E299E30E9462
:10099000C80160EC86E299E30E94C80160E086E24B
:1009A00099E30E94C80161E086E299E30E94C801D0
:1009B00066E086E299E30E94C80160E086E299E37E
:1009C0000E94C80160E086E299E30E94C80169E0E4
:1009D00086E299E30E94C80160E086E299E30E9402
:1009E000C80169E086E299E30E94C80160E086E2FE
:1009F00099E30E94C80166EB86E299E30E94C80170
:100A000080913939813009F048C0909114389111A2
:100A100044C090911F398093143810921338C093BA
:100A20001138D09312389093103810920F381092DA
:100A30000E3810920D3880930C3882E880930B3872
:100A400080911038882331F03092393980910B38F9
:100A50008E7F09C080910F38882341F02092393968
:100A600080910B3881608093170808C080911038FE
:100A7000811104C080910F38882331F3809113389D
:100A80008823E1F3809113388330D1F280910F38BD
:100A9000882309F446C080910D38109220391092B5
:100AA0001F390E946D0180913939811104C061E0C4
:100AB0008DE40E945E006092183870921938C093DD
:100AC0001638D093173800931D3810931E38E092D3
:100AD0001B38F0921C3820E820931A38C092233932
:100AE000D0922439809125398823A1F0109225399C
:100AF0000E946D0160E086E00E94E00060E087E017
:100B00000E94E00061E088E00E948C0060E082E0EA
:100B10000E948C004114510409F4E0CE0E940000B0
:100B2000D9CE80911338B9CFE6E2F9E3128213826D
:100B300088EE93E0A0E0B0E084839583A683B7833A
:100B400082E99BE88083918308950E94B605A59F62
:100B5000900DB49F900DA49F800D911D11240895B8
:100B6000EE0FFF1F0590F491E02D0994A29FB001B4
:100B7000B39FC001A39F700D811D1124911DB29FD1
:0E0B8000700D811D1124911D0895F894FFCF72
:100B8E0000000000C801A3019C0189017A017901CE
:100B9E001010800000101010000010000405060751
:100BAE000302010001020300000000000101010127
:100BBE000000000010204080080402010204080119
:00000001FF
